{
  "_format": "hh-sol-artifact-1",
  "contractName": "TimeLocker",
  "sourceName": "contracts/TimeLocker.sol",
  "abi": [
    {
      "inputs": [
        {
          "internalType": "uint256",
          "name": "_myWithdrawalTime",
          "type": "uint256"
        }
      ],
      "name": "deposit",
      "outputs": [],
      "stateMutability": "payable",
      "type": "function"
    },
    {
      "inputs": [],
      "name": "myDepositedAmount",
      "outputs": [
        {
          "internalType": "uint256",
          "name": "",
          "type": "uint256"
        }
      ],
      "stateMutability": "view",
      "type": "function"
    },
    {
      "inputs": [],
      "name": "myWithdrawalTime",
      "outputs": [
        {
          "internalType": "uint256",
          "name": "",
          "type": "uint256"
        }
      ],
      "stateMutability": "view",
      "type": "function"
    },
    {
      "inputs": [
        {
          "internalType": "uint256",
          "name": "_amount",
          "type": "uint256"
        }
      ],
      "name": "withdraw",
      "outputs": [],
      "stateMutability": "nonpayable",
      "type": "function"
    }
  ],
  "bytecode": "0x608060405234801561001057600080fd5b50610532806100206000396000f3fe60806040526004361061003f5760003560e01c80630e5c72ba146100445780632e1a7d4d1461006f578063b6b55f2514610098578063f9f5ec4c146100b4575b600080fd5b34801561005057600080fd5b506100596100df565b60405161006691906103fa565b60405180910390f35b34801561007b57600080fd5b506100966004803603810190610091919061033c565b61012d565b005b6100b260048036038101906100ad919061033c565b61026c565b005b3480156100c057600080fd5b506100c96102d9565b6040516100d691906103fa565b60405180910390f35b6000806000803373ffffffffffffffffffffffffffffffffffffffff1673ffffffffffffffffffffffffffffffffffffffff1681526020019081526020016000209050806000015491505090565b600042905060008060003373ffffffffffffffffffffffffffffffffffffffff1673ffffffffffffffffffffffffffffffffffffffff1681526020019081526020016000209050600081600101549050828111156101c0576040517f08c379a00000000000000000000000000000000000000000000000000000000081526004016101b7906103da565b60405180910390fd5b8160000154841115610207576040517f08c379a00000000000000000000000000000000000000000000000000000000081526004016101fe906103ba565b60405180910390fd5b3373ffffffffffffffffffffffffffffffffffffffff166108fc859081150290604051600060405180830381858888f1935050505015801561024d573d6000803e3d6000fd5b5083826000015461025e9190610426565b826000018190555050505050565b6040518060400160405280348152602001828152506000803373ffffffffffffffffffffffffffffffffffffffff1673ffffffffffffffffffffffffffffffffffffffff168152602001908152602001600020600082015181600001556020820151816001015590505050565b6000806000803373ffffffffffffffffffffffffffffffffffffffff1673ffffffffffffffffffffffffffffffffffffffff1681526020019081526020016000209050806001015491505090565b600081359050610336816104e5565b92915050565b60006020828403121561034e57600080fd5b600061035c84828501610327565b91505092915050565b6000610372601283610415565b915061037d82610493565b602082019050919050565b6000610395601a83610415565b91506103a0826104bc565b602082019050919050565b6103b48161045a565b82525050565b600060208201905081810360008301526103d381610365565b9050919050565b600060208201905081810360008301526103f381610388565b9050919050565b600060208201905061040f60008301846103ab565b92915050565b600082825260208201905092915050565b60006104318261045a565b915061043c8361045a565b92508282101561044f5761044e610464565b5b828203905092915050565b6000819050919050565b7f4e487b7100000000000000000000000000000000000000000000000000000000600052601160045260246000fd5b7f496e73756666696369656e742066756e64730000000000000000000000000000600082015250565b7f5761697420756e74696c207769746864726177616c2074696d65000000000000600082015250565b6104ee8161045a565b81146104f957600080fd5b5056fea26469706673582212207a56228ee038261ac17ed872dc7e2c5de206c967a1cf99d69a3bb8720f1c7b1f64736f6c63430008040033",
  "linkReferences": {},
  "deployedLinkReferences": {}
}